:020000040800F2
:100000000004002071020008910300089103000819
:100010009103000891030008910300089103000870
:10002000910300089103000891030008B103000840
:10003000910300089103000891030008810400085F
:100040009103000891030008910300089103000840
:100050009103000891030008910300089103000830
:10006000910300089103000891030008D10F0008D4
:1000700001100008311000086110000891100008FC
:10008000C1100008F11000083115000891030008A4
:1000900091030008910300089103000891030008F0
:1000A00091030008910300089103000891030008E0
:1000B0009103000891030008A115000891030008AE
:1000C00091030008910300089103000891030008C0
:1000D00091030008411A000891030008611A000802
:1000E00091030008910300089103000891030008A0
:1000F00091030008910300089103000821110008F2
:10010000910300089103000891030008910300087F
:10011000910300089103000891030008910300086F
:100120005111000881110008B1110008E111000807
:1001300011120008910300089103000891030008C0
:10014000910300089103000891030008910300083F
:100150004112000871120008A11200089103000862
:10016000910300089103000891030008910300081F
:10017000910300089103000891030008910300080F
:0801800091030008910300083F
:1001900010B582B000F02CFE00F0E2F923482449AB
:1001A00000F0D6FE2348244900F0D2FE4FF48060D0
:1001B000C4F202004FF4806140F2823201F010FB81
:1001C0004FF48060C4F202004FF4006140F28232CA
:1001D00001F006FB4FF48060C4F20200402140F2BF
:1001E000823201F0FDFA4FF48060C4F202008021F7
:1001F00040F28232002401F0F3FA00940F48104BD1
:100200004FF4D871402200F0D3FB4FF47A7000F025
:10021000E7FBE1B201220548A41801F0F9FC6420D3
:1002200000F0DEFBFF2CF4D1FEE700BFF00A002057
:100230000C080020780A002000080020680B00202D
:10024000411C0008AFF30080AFF30080AFF30080E3
:10025000704700BFAFF30080AFF30080AFF30080C2
:10026000FEE700BFAFF30080AFF30080AFF3008084
:1002700072B6374880F30988022383F31488BFF3EA
:100280006F8F344B344A93420BD2D943891821F0F3
:100290000301C9184FF05532043B43F8042F8B4239
:1002A000FBD12E4B83420CD22D491A1D891A21F005
:1002B0000301C9184FF05532043B43F8042F8B4219
:1002C000FBD101F06DFC2749274B99420BD2C84363
:1002D000C01820F00300254C043000231A595A504E
:1002E00004338342FAD1224B224A93420AD2D943A1
:1002F000891821F00301C9180022043B43F8042F98
:100300008B42FBD1FFF7A4FF1B4D1C4B9D420BD230
:10031000EE43F618B6080136043D0024013455F8C2
:10032000043F9847B442F9D1FFF732FF144D154B03
:100330009D420BD2EE43F618B6080136043D002468
:10034000013455F8043F9847B442F9D1FFF788FFCC
:10035000000800200000002000040020000400200D
:10036000030800200008002018080020901E000844
:1003700018080020240D00208801000888010008CA
:100380008801000888010008AFF30080AFF3008007
:10039000FEE700BFAFF30080AFF30080AFF3008053
:1003A00000F086FA00DF00BFAFF30080AFF30080FB
:1003B000EFF30983203383F30988002383F3118843
:1003C000704700BFAFF30080AFF30080AFF3008051
:1003D00008B54FF46D43CEF200034FF44072C0F203
:1003E000FA52002199600720DA60102100F090F89D
:1003F0000A204FF4007100F08BF80B208021BDE83B
:10040000084000F085B800BFAFF30080AFF3008074
:10041000202383F311884FF46D43CEF200035B6811
:1004200013F4006319D0EFF30983A3F1200282F3E0
:10043000098810494FF080708A6943F8040CD07F16
:1004400009689268896858B1914294BF00220122DC
:1004500062B1094A43F8082C704783F3118870474A
:10046000914234BF00220122002AF2D1034A43F80C
:10047000082C704730090020A1030008A4030008DD
:1004800008B5202383F3118800F0A2F8002383F33A
:100490001188BDE80840FFF7BBBF00BFAFF3008085
:1004A0002DE9F04FC1F80CD0D0F80CD0BDE8F08F9A
:1004B000002383F311882846A04700F0C1FA704753
:1004C0002DE9F0014FF461438408CEF20003C034FB
:1004D00000F0030553F82460ED00FF274209AF4008
:1004E000A94026EA070600F01F004FF0010802F1BC
:1004F000600C08FA00F046EA010543F8245043F87E
:100500002C0043F82200BDE8F0017047AFF30080F3
:1005100082084FF46D430632CEF2000300F0030070
:1005200030B4C00053F82240FF258540814024EAC2
:10053000050444EA010043F8220030BC704700BFC4
:10054000024B034A9B699A61FEE700BF3009002015
:10055000701C0008AFF30080AFF30080AFF30080A1
:1005600030B583B0FFF734FF00F0DAF800F060F840
:1005700000F0F6FB00F02CFC40F618004021C2F21F
:10058000000000F0A5F940F63011C2F2000101228E
:1005900088610277002383F3118862B641F68045B3
:1005A0008C69C0F6000540F24151A56140F660003B
:1005B00000930B46C0F60003C021C2F2000000F019
:1005C000F7F903B030BD00BFAFF30080AFF3008098
:1005D00038B5134B9B69DA7F0AB1013ADA771A6AA8
:1005E000104C01321A62E36822680133A242E360D0
:1005F00014D09568013D956085B91368D1685C6039
:100600002360D560002383F3118810698847202375
:1006100083F3118822689368002BEED038BD00BFA9
:100620003009002020090020AFF30080AFF30080E4
:1006300040F62013C2F200034FF0FF3100225B604E
:100640001B609960DA607047AFF30080AFF3008001
:1006500070B40D4E03613468C260A568A94204D924
:100660002468491BA5688D42FAD363688160B4424F
:1006700043600460186018BFA36860601CBFC1EBD2
:100680000301A16070BC704720090020AFF3008017
:10069000074A036893421FBF996882688A189A6064
:1006A00042681360036800215A60C160704700BF50
:1006B00020090020AFF30080AFF30080AFF300808B
:1006C00010B4202383F31188037F0D2B11D8DFE8AA
:1006D00003F020101007100B101010101010100B4A
:1006E000436A9A6801329A6090E80C001A600268C6
:1006F00053604FF0FF3400228168084B4462027758
:100700001B689A688A42FBD25A6803604260106094
:100710005860002383F3118810BC70473009002013
:1007200040F63013C2F2000300225B601B605B6185
:100730001B619A60704700BFAFF30080AFF3008089
:1007400000228168054B02771B689A688A42FBD2B7
:100750005A6803604260106058607047300900209A
:1007600040F63013C2F2000330B41A689969146875
:10077000087714200125C8771046636015771C6040
:100780009A6130BCFFF78CBEAFF30080AFF30080FE
:1007900030B54B1C87B0054611D00B4C0B4AA369F2
:1007A00001A8FFF755FF2846FFF7DAFF049B13B1B6
:1007B00001A8FFF76DFFA369586A07B030BDFFF7C6
:1007C000CFFF014CF7E700BF30090020C106000849
:1007D000F0B4154F8568BE690446B0686162854211
:1007E0000DD800223B4622771B689A689542FBD9B8
:1007F0005A682360626014605C60F0BC704700233C
:1008000033773B461B689A689042FBD95A6833603D
:100810000120207731462046726016605E60BC6120
:10082000F0BCFFF73DBE00BF30090020AFF30080F1
:100830000E4B186899690268F0B401271426002548
:1008400053608C681A6007779861CE770D770346FE
:1008500000E01B689A68A242FBD25A680B604A60AB
:1008600011605960F0BCFFF71BBE00BF30090020CB
:100870000D4B18689969026870B401260025536011
:100880008C681A60067798610D77034600E01B6854
:100890009A68A242FBD85A680B604A60116059609E
:1008A00070BCFFF7FDBD00BF30090020AFF3008032
:1008B000034B9B69DB7F0BB1FFF7DABFFFF7B8BFD4
:1008C00030090020AFF30080AFF30080AFF3008069
:1008D00040F63012C2F200022DE9F00355690164BE
:1008E000002400F12C064FF002094FF014084FF0DD
:1008F000010C00F1280702614561816080F81C90BD
:10090000506180F81F80286180F81EC087620663EE
:10091000C6624477C463846304628461BDE8F00303
:10092000704700BFAFF30080AFF30080AFF30080EB
:100930002DE9F00F40F63015C2F2000524394618B3
:100940006F69C660435000F12801816240F2B14AEC
:1009500008994FF0000B00F12C034FF002094FF003
:1009600014084FF0010CC0F6000A7160C6F820A010
:1009700004460561826047610264686180F81C90EA
:1009800080F81F8080F81EC00363C362386180F85E
:100990001DB0C0F83CB0C0F838B0C0F820B0C0F806
:1009A00018B0BDE8F00F7047AFF30080AFF30080E0
:1009B00030B583B01D46069C202383F311882B4657
:1009C0000094FFF7B5FF00210446FFF701FF002365
:1009D00083F31188204603B030BD00BFAFF3008021
:1009E00008B50146202383F311880620FFF7D0FEC7
:1009F000002383F3118808BDAFF30080AFF30080BC
:100A000038B50E4B9C692546606255F8280FA84200
:100A100006D00368A362FFF793FEA06AA842F8D14C
:100A2000637F9B0704D1636922691A61226953615C
:100A30000E20BDE83840FFF793BE00BF300900200C
:100A4000202383F31188FFF7DBBF00BFAFF30080E3
:100A50000023406000608360704700BFAFF30080F8
:100A600008B5826B037F1143082B81630BD0092BE0
:100A700000D008BD436A19408B42FAD1FFF760FEEF
:100A80000023436208BD436A1942F7D108BD00BF85
:100A900070B50468A04205460E4608D0201D0BC85C
:100AA0003343E360FFF7DCFF2468A542F6D170BD55
:100AB00010B4024659B1084B9B69586244680D2036
:100AC00083E814005360236010BCFFF761BE4FF051
:100AD000FF3010BC704700BF30090020AFF300802A
:100AE00030B4029C40608A180025026100604161B8
:100AF0008161C160C3618560046230BC704700BF22
:100B0000426908B503468069824298681AD001306C
:100B1000986002F8011B19695A618A420BD2186861
:100B200098420DD002681A605360FFF709FE002357
:100B30004362184608BD1868DA6898425A61F1D1D4
:100B4000002008BD0028E2D06FF0030008BD00BF00
:100B500070B520230E46044683F31188C36903B1A0
:100B60009847A568204631463DB9FFF7A1FF002808
:100B7000F7DA2B4683F3118870BDA3692269013D22
:100B8000A56013F8010B9342A36124BFE368A3613E
:100B9000002383F3118870BDAFF30080AFF30080B2
:100BA0002DE9F0471E460446C769202383F31188C8
:100BB0004FF0000801EB020A01F101090FB12046D4
:100BC000B847A568204631464DB9FFF771FF0028A8
:100BD000F7D02B4683F311884046BDE8F087A36920
:100BE000013DA56013F8012B09F8012C2269A361CE
:100BF000934224BFE368A361002383F31188D145A6
:100C000008F10108E8D0202383F3118809F10109D4
:100C1000D4E700BFAFF30080AFF30080AFF30080F4
:100C200030B4029C40608D180060826005614161B3
:100C30008161C160C361046230BC7047AFF3008062
:100C4000F8B504460F461646202383F31188A5689D
:100C5000204631463DB9FFF72BFF0028F7DA2B4637
:100C600083F31188F8BD6369013DA56003F8017B3A
:100C700022696361934224BFE3686361E3690BB156
:100C800020469847002383F311881846F8BD00BF1B
:100C900041698269914210B50346816816D00131DD
:100CA000996012F8014B19699A618A420BD218684F
:100CB000984206D002681A605360FFF741FD002396
:100CC0004362204610BDDA689A61F0E70029E6D059
:100CD0006FF0020010BD00BFAFF30080AFF30080E3
:100CE0002DE9F0479A46044688461646D0F81C90EF
:100CF000202383F311880027A56820466B1EF5B1D9
:100D0000A36018F8013B656905F8013B236965613B
:100D10009D4224BFE3686361B9F1000F00D0C8476A
:100D2000002383F31188013E07F1010710D020232F
:100D300083F31188A56820466B1E002DE0D1204664
:100D40005146FFF7B5FE0028D6D02B4683F3118815
:100D50003846BDE8F08700BFAFF30080AFF30080F6
:100D60004CF2000140F64C1240F650130648C2F215
:100D70000101C2F20002C2F2000321F0070120F0DB
:100D800007001160186070472B0D0020AFF3008042
:100D9000202383F31188094B09491A680968073031
:100DA00020F00700891A88429ABF101818600022A4
:100DB000002383F311881046704700BF50090020BC
:100DC0004C090020AFF30080AFF30080AFF3008048
:100DD00040F65813C2F2000340F691510022C0F6CB
:100DE000000103F1100019609A60DA60FFF730BE6D
:100DF00008B500F095FA41F69050C0F6000000F0FA
:100E000017FC00F00DF800F023F800F071F800F086
:100E1000CFF8BDE8084000F0CBBE00BFAFF30080C4
:100E200000F04EBBAFF30080AFF30080AFF3008063
:100E300000230122027043608360C3600361436149
:100E40001830FFF705BE00BFAFF30080AFF300809E
:100E500000F0DEBBAFF30080AFF30080AFF30080A3
:100E60000122002302704360704700BFAFF300808F
:100E70000C30FFF795BE00BFAFF30080AFF30080EA
:100E80000C304FF0FF33FFF78BBE00BFAFF3008095
:100E90003030FFF725BF00BFAFF30080AFF3008015
:100EA00030304FF0FF33FFF71BBF00BFAFF30080C0
:100EB0000C30FFF74DBE00BFAFF30080AFF30080F2
:100EC0000C304FF0FF31FFF743BE00BFAFF300809F
:100ED0003030FFF7B5BE00BFAFF30080AFF3008046
:100EE00030304FF0FF32FFF7ABBE00BFAFF30080F2
:100EF00000F0C6BDAFF30080AFF30080AFF3008019
:100F000070B541F6A043C0F60003044682B040F835
:100F1000043B012600940B461546606004F1540121
:100F200004F10C0026721022FFF7DAFD00942B4624
:100F300004F1300004F164011022FFF771FE02B0E9
:100F400070BD00BFAFF30080AFF30080AFF300804F
:100F500010B52023044683F3118800F0B9FD022365
:100F60002372002383F3118810BD00BFAFF300800C
:100F700038B5436904460D463BB1294604F10C00DF
:100F8000FFF7BEFD00280BDB38BD04300421FFF75E
:100F90007FFD294604F10C00FFF7B2FD0028F3DACB
:100FA000201D8021BDE83840FFF772BDAFF30080FF
:100FB00000F07EBCAFF30080AFF30080AFF30080A1
:100FC000002301220270436083600C30FFF740BDB4
:100FD0004FF4C043C4F2020306481968026810B512
:100FE0003D2421409C600AB140689047BDE8104014
:100FF000FFF70EBA78090020AFF30080AFF300804E
:101000004FF4C043C4F2020308481968826810B55F
:1010100089094FF4746401F03D019C600AB1C06815
:101020009047BDE81040FFF7F3B900BF78090020F2
:101030004FF4C043C4F2020308481968026910B5AE
:10104000090C4FF4741401F03D019C600AB1406931
:101050009047BDE81040FFF7DBB900BF78090020DA
:101060004FF4C043C4F2020308481968826910B5FE
:10107000890D4FF0746401F03D019C600AB1C069B4
:101080009047BDE81040FFF7C3B900BF78090020C2
:101090004FF4C043C4F2020306485968026A10B50F
:1010A0003D242140DC600AB1406A9047BDE8104011
:1010B000FFF7AEB978090020AFF30080AFF30080EE
:1010C0004FF4C043C4F2020308485968826A10B55D
:1010D00089094FF4746401F03D01DC600AB1C06A13
:1010E0009047BDE81040FFF793B900BF7809002092
:1010F0004FF4C043C4F2020308485968026B10B5AC
:10110000090C4FF4741401F03D01DC600AB1406B2E
:101110009047BDE81040FFF77BB900BF7809002079
:101120004FF4C043C4F2020308485968826B10B5FB
:10113000890D4FF0746401F03D01DC600AB1C06BB1
:101140009047BDE81040FFF763B900BF7809002061
:101150004FF4C843C4F2020306481968026C10B584
:101160003D2421409C600AB1406C9047BDE810408E
:10117000FFF74EB978090020AFF30080AFF300808D
:101180004FF4C843C4F2020308481968826C10B5D2
:1011900089094FF4746401F03D019C600AB1C06C90
:1011A0009047BDE81040FFF733B900BF7809002031
:1011B0004FF4C843C4F2020308481968026D10B521
:1011C000090C4FF4741401F03D019C600AB1406DAC
:1011D0009047BDE81040FFF71BB900BF7809002019
:1011E0004FF4C843C4F2020308481968826D10B571
:1011F000890D4FF0746401F03D019C600AB1C06D2F
:101200009047BDE81040FFF703B900BF7809002000
:101210004FF4C843C4F2020306485968026E10B581
:101220003D242140DC600AB1406E9047BDE810408B
:10123000FFF7EEB878090020AFF30080AFF300802D
:101240004FF4C843C4F2020308485968826E10B5CF
:1012500089094FF4746401F03D01DC600AB1C06E8D
:101260009047BDE81040FFF7D3B800BF78090020D1
:101270004FF4C843C4F2020308485968026F10B51E
:10128000090C4FF4741401F03D01DC600AB1406FA9
:101290009047BDE81040FFF7BBB800BF78090020B9
:1012A0004FF4C843C4F2020308485968826F10B56E
:1012B000890D4FF0746401F03D01DC600AB1C06F2C
:1012C0009047BDE81040FFF7A3B800BF78090020A1
:1012D0000F4B30B400220F4D0F4C1A6011461346CD
:1012E000E8580C33C02B0160A15002F10802F7D17D
:1012F0004FF4C0414FF4C842C4F20201C4F20202EA
:101300004FF0FF338B60CB609360D36030BC70478D
:10131000F8090020C01C000878090020AFF3008005
:101320004FF46053C4F2020300224FF0FF301969FA
:10133000F0B418611A61596958615A6199699861E4
:101340009A611E6A4EF21001CEF2000166F08056DC
:1013500049F23F054EF6F0541E62CEF200041A62C6
:10136000C0F2020507265F6A58625A624D608A60C1
:101370000E60E0684FF48051CEF2000140F08070C2
:10138000E060086840F001000860186C4FF4E0412C
:10139000C4F2000140F080501864086840F4807086
:1013A0000860196F01F44071B1F5007F1EBF4FF462
:1013B000803119671A674FF46053C4F202031A6F41
:1013C000120407D41A6F42F400721A671A6F42F4BB
:1013D00000421A67F0BCFFF77BBF00BFAFF300808D
:1013E0004FF460524FF4E043C4F20202C4F200032F
:1013F0004FF080504FF4804110641A4619605368D2
:101400005904FCD54FF46053C4F2020319461A681C
:1014100042F001021A600A684FF460539207C4F266
:101420000203F8D51A6842F480321A6019460A6835
:101430004FF460539003C4F20203F8D55A6F42F0A0
:1014400001025A6719464A6F4FF460539207C4F27B
:101450000203F8D545F20842C0F240725A601A6899
:1014600042F080721A6019460A684FF46053900186
:10147000C4F20203F8D598684FF414424FF4705147
:10148000C3F60802C4F20201024340F205709A60FA
:1014900008609A6842F002029A60996801F00C01B3
:1014A0004FF460520829C4F20202F6D1536C43F49F
:1014B00080435364536E43F480435366704700BFC8
:1014C00038B540F6FC14C2F200042046FFF7B0FC29
:1014D000084D4FF4005242F61643C4F20102C0F226
:1014E000020312206021A262E5622363BDE8384056
:1014F000FEF7E6BF501D0008AFF30080AFF3008099
:10150000C16A0A68136823F01F0310B413601368DC
:1015100013F00103FBD10C7A826A48683D2101FA7D
:1015200004F40121046053609360916010BC704723
:101530004FF40053C4F2010300211A6810B519607A
:10154000910627D5154CE36A1B685B6813B32369C2
:1015500003B32046FFF7D4FF23699B684BB10522F4
:1015600022702046012198472378052B04BF0223CF
:101570002370002222610949202383F311886069C6
:1015800028B14FF0FF3343624A61FFF7D9F80023D7
:1015900083F31188BDE81040FEF73ABFFC09002034
:1015A00038B5174D2B691A8A9C89A4B21440E243BE
:1015B00092B21A82A3071ED4600717D4210710D451
:1015C000E20609D4E30703D56B680D489B6898478A
:1015D000BDE83840FEF71CBF6B6809489B6A984716
:1015E000F0E76B6806481B6A9847E9E76B680448B0
:1015F0009B699847E2E76B6828461B699847DBE7D9
:10160000300A0020AFF30080AFF30080AFF300801A
:1016100010B540F63024C2F200042046FFF720FC4B
:101620004FF40063C4F20003236110BDAFF30080E8
:101630004FF46053C4F202031A6B6FEA52226FEA4E
:1016400042221A631A6D6FEA52226FEA42221A6529
:1016500000234168C4F202034FF48062596081683C
:101660009960C168D96001695961416919628169EC
:10167000596201681960016AC4F202024FF4006302
:101680005160416A9160816AD160C16A5161016BA8
:101690001162416B5162C1691160C4F20203C16BF6
:1016A0005960016C9960416CD960816C5961C16C61
:1016B0001962016D5962816B4FF440621960816D4E
:1016C000C4F202024FF480535160C16D9160016E0B
:1016D000D160416E5161816E1162C16E5162416D86
:1016E0001160C4F20203416F5960816F9960C16F4C
:1016F000D960D0F880105961D0F884101962D0F800
:1017000088105962016F4FF4A0521960D0F8901000
:10171000C4F202024FF4C0535160D0F894109160AB
:10172000D0F89810D160D0F89C105161D0F8A0107A
:101730001162D0F8A4105162D0F88C101160D0F86A
:10174000AC10C4F202034FF4E0525960D0F8B0106C
:101750009960D0F8B410D960D0F8B8105961D0F8B9
:10176000BC101962D0F8C0105962D0F8A810C4F2A9
:1017700002021960D0F8C8305360D0F8CC309360C2
:10178000D0F8D030D360D0F8D4305361D0F8D8300E
:101790001362D0F8DC305362D0F8C4104FF4005319
:1017A0001160D0F8E420C4F202035A60D0F8E820B7
:1017B0009A60D0F8EC20DA60D0F8F0205A61D0F8C6
:1017C000F4201A62D0F8F8205A62D0F8E0201A60AB
:1017D000704700BFAFF30080AFF30080AFF300802D
:1017E0002DE9F00F002302F00307C2F38006C2F3D5
:1017F000C105C2F341144FF00F09C2F3C3124FF0F9
:10180000010A04E07600AD00A400BF00013303F03C
:10181000070C4FEA8C0C11F0010F02FA0CF809FAD0
:101820000CFC3CD0072B95BFD0F820B0D0F824B0EA
:101830002BEA0C0C2BEA0C0C95BF4CEA08084CEA7E
:101840000808C0F82080C0F82480D0F804C00AFA44
:1018500003F82CEA080C4CEA060CC0F804C04FF060
:10186000030B4FEA430CD0F808800BFA0CFC6FEA2C
:101870000C0C0CEA080848EA0508C0F80880D0F803
:101880000C800CEA080848EA0408C0F80C80D0F87C
:1018900000800CEA080C4CEA070CC0F800C04908AC
:1018A000B0D1BDE8F00F7047AFF30080AFF3008018
:1018B00038B540F6442340F64824C2F20004C2F290
:1018C00000034FF6FF7220461A80FFF779FB0949A3
:1018D0004FF4605016224623C4F2000001F10C05BB
:1018E000C0F20102C0F20103E06121626562A262FE
:1018F000E36238BDE41C0008AFF30080AFF3008062
:101900004FF48053C4F201039A8992B242F08002EC
:101910009A817047AFF30080AFF30080AFF300808F
:101920004FF49043C4F200039A8992B242F08002CD
:101930009A817047AFF30080AFF30080AFF300806F
:101940002DE9F041456FAF892C88A988A4B2220700
:101950000646BFB21FFA81F83DD1E30529D4A0069F
:101960001BD4390601D5220650D4630613D5202393
:1019700083F311881021301DFFF78AF8002383F3C9
:1019800011884FF6BF733B40AB812B8823F0400397
:101990001B041B0C2B80BDE8F081202383F31188EE
:1019A0005FFA88F13046FFF7E3FA002383F31188EA
:1019B000D7E7202383F311884FF40071301DFFF720
:1019C00067F8002383F311882B8823F480731B04AA
:1019D0001B0C2B80C3E714F0080F0CBF00218021E3
:1019E000E30748BF41F02001A00748BF41F0400194
:1019F000620748BF41F48071202383F31188301DB2
:101A0000FFF746F8002383F31188A6E7202383F32A
:101A1000118806F13000FFF73BF90028A4BF80B21F
:101A2000A88003DB002383F311889EE7301D082183
:101A3000FFF72EF827F0C00343F04003AB81F1E736
:101A400008B540F67820C2F20000FFF779FFBDE844
:101A50000840FEF7DDBC00BFAFF30080AFF30080AD
:101A600008B540F6F020C2F20000FFF769FFBDE8BC
:101A70000840FEF7CDBC00BFAFF30080AFF300809D
:101A800038B540F67825C2F2000541F60112284625
:101A9000C0F60002002140F6F024FFF731FAC2F24E
:101AA00000044FF4805341F62112C4F20103204692
:101AB000C0F6000200216B67FFF722FA4FF4904353
:101AC000C4F20003636738BDAFF30080AFF300805A
:101AD00038B52D4C037A002918BF0C46012B05465A
:101AE00031D06B6F4FF4A0514FF48052C4F2010219
:101AF000C4F20101934218BF8B420BBF21682168D9
:101B00004FF43D424DF680620CBFC0F20152C0F26C
:101B10008022B2FBF1F292B21A81A288E188208978
:101B200042F4045241F0400442F02C0240F0010023
:101B300092B2A4B280B200211C8298829A8119804C
:101B40001A889B8838BD114B98420FD0104B984291
:101B5000C7D14FF46053C4F2020327201A6C42F439
:101B600080221A64C021FEF7ABFCBAE74FF4605341
:101B7000C4F2020325205A6C42F010025A64C021BC
:101B8000FEF79EFCADE700BF801D0008780A00202C
:101B9000F00A0020AFF30080AFF30080AFF30080C5
:101BA000FFF71EBCAFF30080AFF30080AFF30080FF
:101BB000704700BFAFF30080AFF30080AFF3008049
:101BC000F0B40F4FFF23B9703B707B70147854B1A1
:101BD0000023FD18D65CEE70D55C147801334919EA
:101BE0009C42C9B2F5DC3C19C943E1701278044942
:101BF000043230304FF0FF33F0BCFFF771B800BF54
:101C0000180D0020AFF30080AFF30080AFF3008029
:101C100030B583B004258DF80720032419230DEB7C
:101C200005028DF804508DF805408DF80630FFF759
:101C3000C7FF03B030BD00BFAFF30080AFF300803B
:101C400008B54FF0FF310548FEF782FF4FF0FF3235
:101C5000C1B20348FEF7F4FFF3E700BFFC0A00201F
:101C6000A80A0020AFF30080AFF30080AFF300803C
:101C700069646C65000000000000000000000000C6
:101C80006D61696E00168011040448080C10141868
:101C9000001C1D1E1F2000000000000000000000AE
:101CA000A10E0008810E0008E10E0008C10E000818
:101CB000D10E0008B10E0008910E0008710E000848
:101CC000106002400860024000000B0028600240E3
:101CD0000860024006010C004060024008600240BB
:101CE00010020D00586002400860024016030E000A
:101CF000706002400C60024000040F0088600240E7
:101D00000C60024006051000A06002400C6002401A
:101D100010061100B86002400C60024016072F0048
:101D20001064024008640240000838002864024041
:101D30000864024006093900406402400864024019
:101D4000100A3A005864024008640240160B3B0037
:101D5000706402400C640240000C3C008864024045
:101D60000C640240060D4400A06402400C64024072
:101D7000100E4500B86402400C640240160F460085
:101D8000009600000000004000000000000000007D
:101D900000AAA02A00000000FFABFFFF5400014092
:101DA000FFFF00000000565500AA0A00802028000E
:101DB00040020000FFFFFFFF15455155FFFF0000E7
:101DC000000000044000000001802002000000002C
:101DD000FFFFFFFF54154554FFFF000000000060A7
:101DE000000606000001005500000000FFFFFFFF95
:101DF00055505500FF0F00000000000000000000DB
:101E00004000000000000000FFFFFFFF0000000096
:101E1000FFFF0000000000000000000000000000C4
:101E200000000000FFFFFFFF00000000FFFF0000B8
:101E300000000000000000000000000000000000A2
:101E4000FFFFFFFF00000000FFFF00000000000098
:101E5000000000000000000000000000FFFFFFFF86
:101E600000000000FFFF0000000000000000000074
:101E70000000000000000000FFFFFFFF0000000066
:0C1E8000FFFF0000000000000000000058
:101E900080250000000000000000000040420F000C
:081EA000000000000800000032
:04000005080002717C
:00000001FF
